S01E0000526574726F6B69745F4669726D776172655F526576412E7372656349
S113000048040020F1000000ED000000ED000000B5
S113001000000000000000000000000000000000DC
S1130020000000000000000000000000ED000000DF
S11300300000000000000000ED000000BD0600000C
S1130040ED000000ED000000ED000000ED000000F8
S1130050ED000000ED000000ED00000000000000D5
S1130060ED000000ED000000ED00000000000000C5
S113007000000000ED000000ED000000ED000000B5
S11300800000000000000000ED00000010B5064C68
S11300902378002B07D1054B002B02D0044800E045
S11300A000BF0123237010BD0800002000000000E1
S11300B0300A000008B5084B002B03D00748084954
S11300C000E000BF07480368002B00D108BD064BC1
S11300D0002BFBD09847F9E700000000300A00002D
S11300E00C000020300A000000000000FEE7C046BB
S11300F010B52B4B2B4A9A4203D02B4B284A9A42D9
S113010004D32A4B2A4A9A4210D31EE0294A264B8A
S113011003339B1A9B0801339B000022204821498A
S11301208C58845004329A42FAD1EAE7224A1F4B8F
S113013003339B1A9B0801339B0000221C480021B7
S11301401418216004329A42FAD11C4AFF211C4B34
S11301508B439360FD3990235B001A4AD1501A4BAC
S11301609A7B2E318A43111C20220A439A739A7B6C
S11301700C218A43111C08220A439A739A7B032197
S11301808A43111C02220A439A73104A516880233D
S11301900B4353600E4B98470E4B9847FEE7C046FF
S11301A000000020300A0000080000204800002061
S11301B008000020040000200C00002000ED00E0F6
S11301C00000000000700041004800410040004170
S11301D0A109000019080000014A024B1A60704787
S11301E040420F00000000200C4B1B68002B10D174
S11301F0EFF31083002B09D172B6BFF35F8F002297
S1130200074B1A700132074B1A7002E00022054BAB
S11302101A70024A136801331360704724000020E7
S11302200400002028000020084B1A68013A1A60D4
S11302301B68002B09D1064B1B78002B05D001222B
S1130240044B1A70BFF35F8F62B67047240000201E
S1130250280000200400002000B583B001AB8022F8
S11302601A700A785A704A789A708A78DA70191C67
S1130270014B984703B000BD5D06000010B582B085
S113028001AB80241C7014785C7054789C70927854
S1130290DA701A1C014B984702B010BD8D0600009D
S11302A070B50C4C236A01788578427801200240AD
S11302B092014026B3431343021C2A40D2017F30EB
S11302C08343134303220A40120203490B4013439E
S11302D0236270BD00080040FFFCFFFF082803D81C
S11302E08000254B1B589F46172044E0234A116A7F
S11302F002230B43136200203DE0204A916902234C
S11303000B439361002036E01C4A118A02230B43FD
S1130310138200202FE0194A918A02230B4393820F
S1130320002028E016490B68022213430B60134B8C
S11303309A84191C0E32CB681A42FCD0104A916878
S11303400E4BD96252689A6200229A84191C1032A8
S1130350CB681A42FCD00A4B1B689BB2074A9384B1
S1130360002008E005494422885C022303438B549F
S1130370002000E000207047EC0900000008004065
S11303802C00002030B585B0C222D2001A4B9A60EE
S11303901A4A53681E218B43536001236A46137023
S11303A00024174DE0B26946A8470134182CF9D14E
S11303B003A8032303700024447001258570114BA6
S11303C098470620104B9847104B9847104B1C72C7
S11303D05C729C72DC7201956B465C7006236A4603
S11303E0137014725472002069460A4B9847002017
S11303F0094B984705B030BD00080040004000415B
S113040099050000A1020000DD0200001D040000A7
S11304100004004041040000F9040000064A916908
S113042008230B4393610122044B1A70191C0B78A7
S11304301342FCD17047C04600040040000C004049
S113044070B5061C041C0D782D0205434B78002B57
S113045002D08023DB021D434B7A002B02D0802381
S11304601B031D434868012818D9431E184210D1A4
S1130470022806D90223002201325B009842FBD8ED
S113048000E0002212023243141C80235B031D434C
S113049004E00402344380239B021D430B7A002BA7
S11304A002D080239B031D430F4A53785BB2002B79
S11304B0FBDB0E4B98470E4B1E700B4A53785BB216
S11304C0002BFBDB084B9C601A1C53785BB2002B9F
S11304D0FBDB054A516880235B020B401D435560DA
S11304E0044B984770BDC046000C0040E901000071
S11304F0080C00402902000010B5041C0B4A537874
S11305005BB2002BFBDB0A4B98470A4B1C70074A73
S113051053785BB2002BFBDB044A53688021490209
S11305200B435360044B984710BDC046000C004079
S1130530E9010000040C00402902000010B5041C6D
S11305400F4B98470F4B1C700F4B5A881205100F16
S113055059880E4A0A405A8059880D4A0A405A80DE
S1130560191C8022D2014B881342FCD10649020295
S11305704888064B034013434B80064B984710BDF5
S1130580E9010000020C0040000C0040FFF0FFFFF6
S1130590FFBFFFFF2902000010B50C7824020443BA
S11305A0024B9847A4B2024B5C8010BD3D0500008D
S11305B0000C004030B5D378002B1ED11478802C69
S11305C004D0240680235B021C4300E000245378FB
S11305D00225AB430AD19378002B03D180239B02DD
S11305E01C4302E0C023DB021C4341605378013BFF
S11305F0012B12D8184B1C400FE041600B041B0C5C
S1130600A024E405234383620B0CD0242406234353
S11306108362D378002B18D01CE00B041B0CA0259C
S1130620ED052B43234383620B0CD0252D062B436E
S113063023438362D378002B0CD1630305D59378CD
S1130640012B01D1816100E041615378013B012B11
S113065000D8816030BDC046FFFFFBFF08B5031C16
S11306600A1CC1090020002904D15809C001054908
S11306708C4660441F210B401E399940024B984719
S113068008BDC04600440041B5050000F0B583B084
S113069000900E1C019200240127074D331CE340F7
S11306A01F4204D00098391CA140019AA847013484
S11306B0202CF3D103B0F0BDB505000008B54D4AB8
S11306C0138801339BB21380108880B26F214A4B88
S11306D0984789B2002904D180229200474B9A613D
S11306E012E0444B188880B28321434B984789B267
S11306F0002909D13F4B1B889BB2414A934203D83E
S1130700802292003D4B5A613A4B188880B29C215A
S1130710394B984789B2002904D180225200374BC3
S11307209A6112E0334B188880B2B021324B98475B
S113073089B2002909D12F4B1B889BB2314A9342BD
S113074003D8802252002D4B5A612A4B188880B25C
S1130750FA21294B984789B2002903D12022274B3B
S11307609A6112E0234B188880B287214900224BFA
S1130770984789B2002908D11E4B1B889BB2224A94
S1130780934202D820221D4B5A611A4B188880B21A
S1130790FA218900184B984789B2002903D1102205
S11307A0164B9A6112E0134B188880B2FF2189001E
S11307B0114B984789B2002908D10E4B1B889BB274
S11307C0124A934202D810220C4B5A61094B1B88DF
S11307D09BB20F4A93420BD1084800238361012145
S11307E04942416100220B4B9847BFF34F8F30BF02
S11307F008BDC046440000208909000000440041AF
S11308005504000017060000C30900000F2700006C
S1130810983A00007D02000030B583B0124B98472F
S1130820124B9847124B00221A60FA218900596032
S11308309A60072119600F490869042303430B6177
S113084001AC01236370A27023700920211C0A4D9E
S1130850A8470820211CA8470520211CA8470420DC
S1130860211CA847FEE7C046D9010000850300000B
S113087010E000E000ED00E059020000002243080F
S11308808B4274D303098B425FD3030A8B4244D354
S1130890030B8B4228D3030C8B420DD3FF22090296
S11308A012BA030C8B4202D31212090265D0030B55
S11308B08B4219D300E0090AC30B8B4201D3CB034B
S11308C0C01A5241830B8B4201D38B03C01A52418D
S11308D0430B8B4201D34B03C01A5241030B8B428F
S11308E001D30B03C01A5241C30A8B4201D3CB027A
S11308F0C01A5241830A8B4201D38B02C01A52415F
S1130900430A8B4201D34B02C01A5241030A8B4261
S113091001D30B02C01A5241CDD2C3098B4201D379
S1130920CB01C01A524183098B4201D38B01C01AF7
S1130930524143098B4201D34B01C01A524103096E
S11309408B4201D30B01C01A5241C3088B4201D31D
S1130950CB00C01A524183088B4201D38B00C01ACA
S1130960524143088B4201D34B00C01A5241411AF1
S113097000D20146524110467047FFE701B50020FE
S113098000F00CF802BDC0460029F7D003B5FFF70C
S113099075FF0EBC4243891A1847C0467047C046CB
S11309A00E4B70B500251E1C0D4CE41AA410A54274
S11309B004D0AB00F35898470135F8E700F028F865
S11309C0084B00251E1C084CE41AA410A54204D0B0
S11309D0AB00F35898470135F8E770BD1C0A0000D6
S11309E01C0A00001C0A0000200A00000803000082
S11309F0E8020000E802000074030000FA020000AC
S1130A0016030000EC02000024030000640300004D
S1130A10F8B5C046F8BC08BC9E467047B500000057
S1130A20F8B5C046F8BC08BC9E4670478D0000006F
S10B0A3040420F000100000028
S90300F10B
